{
  "_format": "hh-sol-artifact-1",
  "contractName": "SingleSwapToken",
  "sourceName": "contracts/SwapToken.sol",
  "abi": [
    {
      "inputs": [],
      "name": "DAI",
      "outputs": [
        {
          "internalType": "address",
          "name": "",
          "type": "address"
        }
      ],
      "stateMutability": "view",
      "type": "function"
    },
    {
      "inputs": [],
      "name": "USDC",
      "outputs": [
        {
          "internalType": "address",
          "name": "",
          "type": "address"
        }
      ],
      "stateMutability": "view",
      "type": "function"
    },
    {
      "inputs": [],
      "name": "WETH9",
      "outputs": [
        {
          "internalType": "address",
          "name": "",
          "type": "address"
        }
      ],
      "stateMutability": "view",
      "type": "function"
    },
    {
      "inputs": [
        {
          "internalType": "uint256",
          "name": "amountIn",
          "type": "uint256"
        }
      ],
      "name": "swapExactInputSingle",
      "outputs": [
        {
          "internalType": "uint256",
          "name": "amountOut",
          "type": "uint256"
        }
      ],
      "stateMutability": "nonpayable",
      "type": "function"
    },
    {
      "inputs": [
        {
          "internalType": "uint256",
          "name": "amountOut",
          "type": "uint256"
        },
        {
          "internalType": "uint256",
          "name": "amountInMaximum",
          "type": "uint256"
        }
      ],
      "name": "swapExactOutputSingle",
      "outputs": [
        {
          "internalType": "uint256",
          "name": "amountIn",
          "type": "uint256"
        }
      ],
      "stateMutability": "nonpayable",
      "type": "function"
    },
    {
      "inputs": [],
      "name": "swapRouter",
      "outputs": [
        {
          "internalType": "contract ISwapRouter",
          "name": "",
          "type": "address"
        }
      ],
      "stateMutability": "view",
      "type": "function"
    }
  ],
  "bytecode": "0x608060405234801561001057600080fd5b50610a28806100206000396000f3fe608060405234801561001057600080fd5b50600436106100725760003560e01c8063c31c9c0711610050578063c31c9c07146100bd578063c4b69a18146100c5578063e0bab4c4146100d857610072565b80634aa4a4fc1461007757806373bd43ad1461009557806389a30271146100b5575b600080fd5b61007f6100e0565b60405161008c91906108a2565b60405180910390f35b6100a86100a33660046107b4565b6100f8565b60405161008c91906109ad565b61007f610259565b61007f610271565b6100a86100d33660046107e4565b610289565b61007f610450565b73c02aaa39b223fe8d0a0e5c4f27ead9083c756cc281565b600061011a73c02aaa39b223fe8d0a0e5c4f27ead9083c756cc2333085610468565b61014d73c02aaa39b223fe8d0a0e5c4f27ead9083c756cc273e592427a0aece92de3edee1f18e0157c0586156484610581565b604080516101008101825273c02aaa39b223fe8d0a0e5c4f27ead9083c756cc28152736b175474e89094c44da98b954eedeac495271d0f6020820152610bb88183015233606082015242608082015260a08101849052600060c0820181905260e082015290517f414bf38900000000000000000000000000000000000000000000000000000000815273e592427a0aece92de3edee1f18e0157c058615649063414bf38990610200908490600401610998565b602060405180830381600087803b15801561021a57600080fd5b505af115801561022e573d6000803e3d6000fd5b505050506040513d601f19601f8201168201806040525081019061025291906107cc565b9392505050565b73a0b86991c6218b36c1d19d4a2e9eb0ce3606eb4881565b73e592427a0aece92de3edee1f18e0157c0586156481565b60006102ab73c02aaa39b223fe8d0a0e5c4f27ead9083c756cc2333085610468565b6102de73c02aaa39b223fe8d0a0e5c4f27ead9083c756cc273e592427a0aece92de3edee1f18e0157c0586156484610581565b604080516101008101825273c02aaa39b223fe8d0a0e5c4f27ead9083c756cc28152736b175474e89094c44da98b954eedeac495271d0f6020820152610bb88183015233606082015242608082015260a0810185905260c08101849052600060e082015290517fdb3e219800000000000000000000000000000000000000000000000000000000815273e592427a0aece92de3edee1f18e0157c058615649063db3e219890610391908490600401610998565b602060405180830381600087803b1580156103ab57600080fd5b505af11580156103bf573d6000803e3d6000fd5b505050506040513d601f19601f820116820180604052508101906103e391906107cc565b9150828210156104495761042173c02aaa39b223fe8d0a0e5c4f27ead9083c756cc273e592427a0aece92de3edee1f18e0157c058615646000610581565b61044973c02aaa39b223fe8d0a0e5c4f27ead9083c756cc23361044485876109b6565b61068e565b5092915050565b736b175474e89094c44da98b954eedeac495271d0f81565b600080856001600160a01b03166323b872dd60e01b868686604051602401610492939291906108b6565b60408051601f198184030181529181526020820180516001600160e01b03167fffffffff000000000000000000000000000000000000000000000000000000009094169390931790925290516104e89190610869565b6000604051808303816000865af19150503d8060008114610525576040519150601f19603f3d011682016040523d82523d6000602084013e61052a565b606091505b50915091508180156105545750805115806105545750808060200190518101906105549190610794565b6105795760405162461bcd60e51b815260040161057090610961565b60405180910390fd5b505050505050565b600080846001600160a01b031663095ea7b360e01b85856040516024016105a99291906108da565b60408051601f198184030181529181526020820180516001600160e01b03167fffffffff000000000000000000000000000000000000000000000000000000009094169390931790925290516105ff9190610869565b6000604051808303816000865af19150503d806000811461063c576040519150601f19603f3d011682016040523d82523d6000602084013e610641565b606091505b509150915081801561066b57508051158061066b57508080602001905181019061066b9190610794565b6106875760405162461bcd60e51b8152600401610570906108f3565b5050505050565b600080846001600160a01b031663a9059cbb60e01b85856040516024016106b69291906108da565b60408051601f198184030181529181526020820180516001600160e01b03167fffffffff0000000000000000000000000000000000000000000000000000000090941693909317909252905161070c9190610869565b6000604051808303816000865af19150503d8060008114610749576040519150601f19603f3d011682016040523d82523d6000602084013e61074e565b606091505b50915091508180156107785750805115806107785750808060200190518101906107789190610794565b6106875760405162461bcd60e51b81526004016105709061092a565b6000602082840312156107a5578081fd5b81518015158114610252578182fd5b6000602082840312156107c5578081fd5b5035919050565b6000602082840312156107dd578081fd5b5051919050565b600080604083850312156107f6578081fd5b50508035926020909101359150565b6001600160a01b0380825116835280602083015116602084015262ffffff60408301511660408401528060608301511660608401526080820151608084015260a082015160a084015260c082015160c08401528060e08301511660e0840152505050565b60008251815b81811015610889576020818601810151858301520161086f565b818111156108975782828501525b509190910192915050565b6001600160a01b0391909116815260200190565b6001600160a01b039384168152919092166020820152604081019190915260600190565b6001600160a01b03929092168252602082015260400190565b60208082526002908201527f5341000000000000000000000000000000000000000000000000000000000000604082015260600190565b60208082526002908201527f5354000000000000000000000000000000000000000000000000000000000000604082015260600190565b60208082526003908201527f5354460000000000000000000000000000000000000000000000000000000000604082015260600190565b61010081016109a78284610805565b92915050565b90815260200190565b6000828210156109ed577f4e487b710000000000000000000000000000000000000000000000000000000081526011600452602481fd5b50039056fea2646970667358221220648b8b518eddbfe49590eb18329943270e4adf89fe931b56b717b1d2446be17d64736f6c63430008000033",
  "linkReferences": {},
  "deployedLinkReferences": {}
}