{
  "_format": "hh-sol-artifact-1",
  "contractName": "SwapMultiHop",
  "sourceName": "contracts/SwapMultiHop.sol",
  "abi": [
    {
      "inputs": [],
      "name": "DAI",
      "outputs": [
        {
          "internalType": "address",
          "name": "",
          "type": "address"
        }
      ],
      "stateMutability": "view",
      "type": "function"
    },
    {
      "inputs": [],
      "name": "USDC",
      "outputs": [
        {
          "internalType": "address",
          "name": "",
          "type": "address"
        }
      ],
      "stateMutability": "view",
      "type": "function"
    },
    {
      "inputs": [],
      "name": "WETH9",
      "outputs": [
        {
          "internalType": "address",
          "name": "",
          "type": "address"
        }
      ],
      "stateMutability": "view",
      "type": "function"
    },
    {
      "inputs": [
        {
          "internalType": "uint256",
          "name": "amountIn",
          "type": "uint256"
        }
      ],
      "name": "swapExactInputMultihop",
      "outputs": [
        {
          "internalType": "uint256",
          "name": "amountOut",
          "type": "uint256"
        }
      ],
      "stateMutability": "nonpayable",
      "type": "function"
    },
    {
      "inputs": [
        {
          "internalType": "uint256",
          "name": "amountOut",
          "type": "uint256"
        },
        {
          "internalType": "uint256",
          "name": "amountInMaximum",
          "type": "uint256"
        }
      ],
      "name": "swapExactOutputMultihop",
      "outputs": [
        {
          "internalType": "uint256",
          "name": "amountIn",
          "type": "uint256"
        }
      ],
      "stateMutability": "nonpayable",
      "type": "function"
    },
    {
      "inputs": [],
      "name": "swapRouter",
      "outputs": [
        {
          "internalType": "contract ISwapRouter",
          "name": "",
          "type": "address"
        }
      ],
      "stateMutability": "view",
      "type": "function"
    }
  ],
  "bytecode": "0x608060405234801561001057600080fd5b506109de806100206000396000f3fe608060405234801561001057600080fd5b50600436106100725760003560e01c8063c31c9c0711610050578063c31c9c07146100bd578063e0bab4c4146100c5578063edd83557146100cd57610072565b80633b85cf6a146100775780634aa4a4fc146100a057806389a30271146100b5575b600080fd5b61008a610085366004610755565b6100e0565b6040516100979190610933565b60405180910390f35b6100a86102d2565b6040516100979190610861565b6100a86102ea565b6100a8610302565b6100a861031a565b61008a6100db366004610725565b610332565b600061010273c02aaa39b223fe8d0a0e5c4f27ead9083c756cc23330856104b5565b61013573c02aaa39b223fe8d0a0e5c4f27ead9083c756cc273e592427a0aece92de3edee1f18e0157c05861564846105e3565b6040805160a0810190915260009080610194736b175474e89094c44da98b954eedeac495271d0f606473a0b86991c6218b36c1d19d4a2e9eb0ce3606eb48610bb873c02aaa39b223fe8d0a0e5c4f27ead9083c756cc260c087016107db565b60408051601f198184030181529181529082523360208301524282820152606082018790526080909101859052517ff28c049800000000000000000000000000000000000000000000000000000000815290915073e592427a0aece92de3edee1f18e0157c058615649063f28c049890610212908490600401610920565b602060405180830381600087803b15801561022c57600080fd5b505af1158015610240573d6000803e3d6000fd5b505050506040513d601f19601f82011682018060405250810190610264919061073d565b9150828210156102cb576102a273c02aaa39b223fe8d0a0e5c4f27ead9083c756cc273e592427a0aece92de3edee1f18e0157c0586156460006105e3565b6102cb73c02aaa39b223fe8d0a0e5c4f27ead9083c756cc230336102c6868861093c565b6104b5565b5092915050565b73c02aaa39b223fe8d0a0e5c4f27ead9083c756cc281565b73a0b86991c6218b36c1d19d4a2e9eb0ce3606eb4881565b73e592427a0aece92de3edee1f18e0157c0586156481565b736b175474e89094c44da98b954eedeac495271d0f81565b600061035473c02aaa39b223fe8d0a0e5c4f27ead9083c756cc23330856104b5565b61038773c02aaa39b223fe8d0a0e5c4f27ead9083c756cc273e592427a0aece92de3edee1f18e0157c05861564846105e3565b6040805160a08101909152600090806103e673c02aaa39b223fe8d0a0e5c4f27ead9083c756cc2610bb873a0b86991c6218b36c1d19d4a2e9eb0ce3606eb486064736b175474e89094c44da98b954eedeac495271d0f60c087016107db565b6040516020818303038152906040528152602001336001600160a01b031681526020014281526020018481526020016000815250905073e592427a0aece92de3edee1f18e0157c058615646001600160a01b031663c04b8d59826040518263ffffffff1660e01b815260040161045c9190610920565b602060405180830381600087803b15801561047657600080fd5b505af115801561048a573d6000803e3d6000fd5b505050506040513d601f19601f820116820180604052508101906104ae919061073d565b9392505050565b600080856001600160a01b03166323b872dd60e01b8686866040516024016104df93929190610875565b60408051601f198184030181529181526020820180517bffffffffffffffffffffffffffffffffffffffffffffffffffffffff167fffffffff0000000000000000000000000000000000000000000000000000000090941693909317909252905161054a9190610845565b6000604051808303816000865af19150503d8060008114610587576040519150601f19603f3d011682016040523d82523d6000602084013e61058c565b606091505b50915091508180156105b65750805115806105b65750808060200190518101906105b69190610705565b6105db5760405162461bcd60e51b81526004016105d2906108e9565b60405180910390fd5b505050505050565b600080846001600160a01b031663095ea7b360e01b858560405160240161060b929190610899565b60408051601f198184030181529181526020820180517bffffffffffffffffffffffffffffffffffffffffffffffffffffffff167fffffffff000000000000000000000000000000000000000000000000000000009094169390931790925290516106769190610845565b6000604051808303816000865af19150503d80600081146106b3576040519150601f19603f3d011682016040523d82523d6000602084013e6106b8565b606091505b50915091508180156106e25750805115806106e25750808060200190518101906106e29190610705565b6106fe5760405162461bcd60e51b81526004016105d2906108b2565b5050505050565b600060208284031215610716578081fd5b815180151581146104ae578182fd5b600060208284031215610736578081fd5b5035919050565b60006020828403121561074e578081fd5b5051919050565b60008060408385031215610767578081fd5b50508035926020909101359150565b6000815160a0845280518060a08601526107978160c0870160208501610978565b6020848101516001600160a01b0316908601526040808501519086015260608085015190860152608093840151938501939093525050601f01601f19160160c00190565b6bffffffffffffffffffffffff19606096871b811682527fffffff000000000000000000000000000000000000000000000000000000000060e896871b8116601484015294871b811660178301529290941b909216602b840152921b909116602e82015260420190565b60008251610857818460208701610978565b9190910192915050565b6001600160a01b0391909116815260200190565b6001600160a01b039384168152919092166020820152604081019190915260600190565b6001600160a01b03929092168252602082015260400190565b60208082526002908201527f5341000000000000000000000000000000000000000000000000000000000000604082015260600190565b60208082526003908201527f5354460000000000000000000000000000000000000000000000000000000000604082015260600190565b6000602082526104ae6020830184610776565b90815260200190565b600082821015610973577f4e487b710000000000000000000000000000000000000000000000000000000081526011600452602481fd5b500390565b60005b8381101561099357818101518382015260200161097b565b838111156109a2576000848401525b5050505056fea2646970667358221220c945aca721d90c888b8f2dd9be4ee501c9de6dfa543790a833abc274a2cc8a6864736f6c63430008000033",
  "linkReferences": {},
  "deployedLinkReferences": {}
}